{
  "_format": "hh-sol-artifact-1",
  "contractName": "Transactions",
  "sourceName": "contracts/Transactions.sol",
  "abi": [
    {
      "anonymous": false,
      "inputs": [
        {
          "indexed": false,
          "internalType": "address",
          "name": "sender",
          "type": "address"
        },
        {
          "indexed": false,
          "internalType": "address",
          "name": "receiver",
          "type": "address"
        },
        {
          "indexed": false,
          "internalType": "uint256",
          "name": "timestamp",
          "type": "uint256"
        },
        {
          "indexed": false,
          "internalType": "uint256",
          "name": "amount",
          "type": "uint256"
        },
        {
          "indexed": false,
          "internalType": "string",
          "name": "message",
          "type": "string"
        }
      ],
      "name": "Transfer",
      "type": "event"
    },
    {
      "inputs": [
        {
          "internalType": "address payable",
          "name": "receiver",
          "type": "address"
        },
        {
          "internalType": "uint256",
          "name": "amount",
          "type": "uint256"
        },
        {
          "internalType": "string",
          "name": "message",
          "type": "string"
        }
      ],
      "name": "Pay",
      "outputs": [],
      "stateMutability": "payable",
      "type": "function"
    }
  ],
  "bytecode": "0x608060405234801561001057600080fd5b506106ca806100206000396000f3fe60806040526004361061001e5760003560e01c80638a49c86914610023575b600080fd5b61003d60048036038101906100389190610453565b61003f565b005b60006040518060a001604052803373ffffffffffffffffffffffffffffffffffffffff1681526020018573ffffffffffffffffffffffffffffffffffffffff16815260200142815260200184815260200183815250908060018154018082558091505060019003906000526020600020906005020160009091909190915060008201518160000160006101000a81548173ffffffffffffffffffffffffffffffffffffffff021916908373ffffffffffffffffffffffffffffffffffffffff16021790555060208201518160010160006101000a81548173ffffffffffffffffffffffffffffffffffffffff021916908373ffffffffffffffffffffffffffffffffffffffff1602179055506040820151816002015560608201518160030155608082015181600401908051906020019061017b9291906101c2565b5050507f6f61ee1206c525dcbefe79039d2f7b768c9ad70030c51ae6623cd74492e8a6d333844285856040516101b59594939291906105d9565b60405180910390a1505050565b8280546101ce90610662565b90600052602060002090601f0160209004810192826101f05760008555610237565b82601f1061020957805160ff1916838001178555610237565b82800160010185558215610237579182015b8281111561023657825182559160200191906001019061021b565b5b5090506102449190610248565b5090565b5b80821115610261576000816000905550600101610249565b5090565b6000604051905090565b600080fd5b600080fd5b600073ffffffffffffffffffffffffffffffffffffffff82169050919050565b60006102a482610279565b9050919050565b6102b481610299565b81146102bf57600080fd5b50565b6000813590506102d1816102ab565b92915050565b6000819050919050565b6102ea816102d7565b81146102f557600080fd5b50565b600081359050610307816102e1565b92915050565b600080fd5b600080fd5b6000601f19601f8301169050919050565b7f4e487b7100000000000000000000000000000000000000000000000000000000600052604160045260246000fd5b61036082610317565b810181811067ffffffffffffffff8211171561037f5761037e610328565b5b80604052505050565b6000610392610265565b905061039e8282610357565b919050565b600067ffffffffffffffff8211156103be576103bd610328565b5b6103c782610317565b9050602081019050919050565b82818337600083830152505050565b60006103f66103f1846103a3565b610388565b90508281526020810184848401111561041257610411610312565b5b61041d8482856103d4565b509392505050565b600082601f83011261043a5761043961030d565b5b813561044a8482602086016103e3565b91505092915050565b60008060006060848603121561046c5761046b61026f565b5b600061047a868287016102c2565b935050602061048b868287016102f8565b925050604084013567ffffffffffffffff8111156104ac576104ab610274565b5b6104b886828701610425565b9150509250925092565b60006104cd82610279565b9050919050565b6104dd816104c2565b82525050565b6000819050919050565b60006105086105036104fe84610279565b6104e3565b610279565b9050919050565b600061051a826104ed565b9050919050565b600061052c8261050f565b9050919050565b61053c81610521565b82525050565b61054b816102d7565b82525050565b600081519050919050565b600082825260208201905092915050565b60005b8381101561058b578082015181840152602081019050610570565b8381111561059a576000848401525b50505050565b60006105ab82610551565b6105b5818561055c565b93506105c581856020860161056d565b6105ce81610317565b840191505092915050565b600060a0820190506105ee60008301886104d4565b6105fb6020830187610533565b6106086040830186610542565b6106156060830185610542565b818103608083015261062781846105a0565b90509695505050505050565b7f4e487b7100000000000000000000000000000000000000000000000000000000600052602260045260246000fd5b6000600282049050600182168061067a57607f821691505b6020821081141561068e5761068d610633565b5b5091905056fea2646970667358221220bebebaf4620766a23b264c3376e2d329c1f28315ebfe0137a6cd10d7129f836164736f6c634300080b0033",
  "linkReferences": {},
  "deployedLinkReferences": {}
}